{
  "contractName": "TEST",
  "abi": [
    {
      "constant": true,
      "inputs": [],
      "name": "name",
      "outputs": [
        {
          "name": "",
          "type": "string"
        }
      ],
      "payable": false,
      "stateMutability": "view",
      "type": "function",
      "signature": "0x06fdde03"
    },
    {
      "constant": true,
      "inputs": [],
      "name": "INITIAL_SUPPLY",
      "outputs": [
        {
          "name": "",
          "type": "uint256"
        }
      ],
      "payable": false,
      "stateMutability": "view",
      "type": "function",
      "signature": "0x2ff2e9dc"
    },
    {
      "constant": true,
      "inputs": [],
      "name": "decimals",
      "outputs": [
        {
          "name": "",
          "type": "uint256"
        }
      ],
      "payable": false,
      "stateMutability": "view",
      "type": "function",
      "signature": "0x313ce567"
    },
    {
      "constant": true,
      "inputs": [],
      "name": "symbol",
      "outputs": [
        {
          "name": "",
          "type": "string"
        }
      ],
      "payable": false,
      "stateMutability": "view",
      "type": "function",
      "signature": "0x95d89b41"
    }
  ],
  "bytecode": "0x608060405234801561001057600080fd5b5061025f806100206000396000f3fe608060405234801561001057600080fd5b5060043610610069576000357c01000000000000000000000000000000000000000000000000000000009004806306fdde031461006e5780632ff2e9dc146100f1578063313ce5671461010f57806395d89b411461012d575b600080fd5b6100766101b0565b6040518080602001828103825283818151815260200191508051906020019080838360005b838110156100b657808201518184015260208101905061009b565b50505050905090810190601f1680156100e35780820380516001836020036101000a031916815260200191505b509250505060405180910390f35b6100f96101e9565b6040518082815260200191505060405180910390f35b6101176101f5565b6040518082815260200191505060405180910390f35b6101356101fa565b6040518080602001828103825283818151815260200191508051906020019080838360005b8381101561017557808201518184015260208101905061015a565b50505050905090810190601f1680156101a25780820380516001836020036101000a031916815260200191505b509250505060405180910390f35b6040805190810160405280600a81526020017f5445535420746f6b656e0000000000000000000000000000000000000000000081525081565b6012600a0a6103e80281565b601281565b6040805190810160405280600481526020017f54455354000000000000000000000000000000000000000000000000000000008152508156fea165627a7a7230582099d6dd64dbf63e2a648631f369474ad10e8cd6bccf0a1387ded82025241195dc0029",
  "source": "pragma solidity ^0.5.2; // solidity 0.5.2 버전을 사용하겠다.\n\ncontract TEST { // Contract 이름은 TEST1\n  string public constant name = \"TEST token\"; // 토큰의 이름은 TEST token이다.\n  string public constant symbol = \"TEST\"; // TEST라는 명칭을 사용하겠다.\n  uint public constant decimals = 18; // 소수점 18자리까지 사용하겠다.\n  uint public constant INITIAL_SUPPLY = 1000 * 10 ** decimals; // 초기 발행량은 1000.000000000000000000 이다.\n  string constant test = \"You can not see this\";\n}\n",
  "sourcePath": "/shared_vagrant/smartcontract/contracts/Test.sol",
  "compiler": {
    "name": "solc",
    "version": "0.5.2+commit.1df8f40c.Emscripten.clang"
  },
  "schemaVersion": "3.0.8",
  "updatedAt": "2019-05-04T02:56:03.610Z",
  "devdoc": {
    "methods": {}
  },
  "userdoc": {
    "methods": {}
  }
}