{
  "contractName": "TEST",
  "abi": [
    {
      "constant": true,
      "inputs": [],
      "name": "name",
      "outputs": [
        {
          "name": "",
          "type": "string"
        }
      ],
      "payable": false,
      "stateMutability": "view",
      "type": "function",
      "signature": "0x06fdde03"
    },
    {
      "constant": true,
      "inputs": [],
      "name": "INITIAL_SUPPLY",
      "outputs": [
        {
          "name": "",
          "type": "uint256"
        }
      ],
      "payable": false,
      "stateMutability": "view",
      "type": "function",
      "signature": "0x2ff2e9dc"
    },
    {
      "constant": true,
      "inputs": [],
      "name": "decimals",
      "outputs": [
        {
          "name": "",
          "type": "uint8"
        }
      ],
      "payable": false,
      "stateMutability": "view",
      "type": "function",
      "signature": "0x313ce567"
    },
    {
      "constant": true,
      "inputs": [],
      "name": "symbol",
      "outputs": [
        {
          "name": "",
          "type": "string"
        }
      ],
      "payable": false,
      "stateMutability": "view",
      "type": "function",
      "signature": "0x95d89b41"
    },
    {
      "constant": true,
      "inputs": [],
      "name": "hello",
      "outputs": [
        {
          "name": "",
          "type": "string"
        }
      ],
      "payable": false,
      "stateMutability": "view",
      "type": "function",
      "signature": "0x19ff1d21"
    }
  ],
  "bytecode": "0x608060405234801561001057600080fd5b50610331806100206000396000f3fe608060405234801561001057600080fd5b5060043610610074576000357c01000000000000000000000000000000000000000000000000000000009004806306fdde031461007957806319ff1d21146100fc5780632ff2e9dc1461017f578063313ce5671461019d57806395d89b41146101c1575b600080fd5b610081610244565b6040518080602001828103825283818151815260200191508051906020019080838360005b838110156100c15780820151818401526020810190506100a6565b50505050905090810190601f1680156100ee5780820380516001836020036101000a031916815260200191505b509250505060405180910390f35b61010461027d565b6040518080602001828103825283818151815260200191508051906020019080838360005b83811015610144578082015181840152602081019050610129565b50505050905090810190601f1680156101715780820380516001836020036101000a031916815260200191505b509250505060405180910390f35b6101876102ba565b6040518082815260200191505060405180910390f35b6101a56102c7565b604051808260ff1660ff16815260200191505060405180910390f35b6101c96102cc565b6040518080602001828103825283818151815260200191508051906020019080838360005b838110156102095780820151818401526020810190506101ee565b50505050905090810190601f1680156102365780820380516001836020036101000a031916815260200191505b509250505060405180910390f35b6040805190810160405280600a81526020017f5445535420746f6b656e0000000000000000000000000000000000000000000081525081565b60606040805190810160405280600581526020017f776f726c64000000000000000000000000000000000000000000000000000000815250905090565b683635c9adc5dea0000081565b601281565b6040805190810160405280600381526020017f54535400000000000000000000000000000000000000000000000000000000008152508156fea165627a7a72305820a5e6e51acbff15033d659129c3e90a824ed8e35b3229179b32d4ddc3c5f4ce110029",
  "source": "pragma solidity ^0.5.2;\n\ncontract TEST {\n  string public constant name = \"TEST token\";\n  string public constant symbol = \"TST\";\n  uint8 public constant decimals = 18;\n  uint public constant INITIAL_SUPPLY = 1000 * 10 ** 18;\n\n  function hello() public view returns (string memory) {\n    return \"world\";\n  }\n}\n",
  "sourcePath": "/shared_vagrant/smartcontract/contracts/Test.sol",
  "compiler": {
    "name": "solc",
    "version": "0.5.2+commit.1df8f40c.Emscripten.clang"
  },
  "schemaVersion": "3.0.8",
  "updatedAt": "2019-05-04T01:58:36.483Z",
  "devdoc": {
    "methods": {}
  },
  "userdoc": {
    "methods": {}
  }
}