{
  "contractName": "TokenLock",
  "abi": [
    {
      "inputs": [
        {
          "name": "token",
          "type": "address"
        },
        {
          "name": "beneficiary",
          "type": "address"
        },
        {
          "name": "owner",
          "type": "address"
        },
        {
          "name": "releaseTime",
          "type": "uint256"
        },
        {
          "name": "ownable",
          "type": "bool"
        }
      ],
      "payable": false,
      "stateMutability": "nonpayable",
      "type": "constructor"
    },
    {
      "anonymous": false,
      "inputs": [
        {
          "indexed": false,
          "name": "_receiver",
          "type": "address"
        },
        {
          "indexed": false,
          "name": "_amount",
          "type": "uint256"
        }
      ],
      "name": "UnLock",
      "type": "event"
    },
    {
      "anonymous": false,
      "inputs": [
        {
          "indexed": false,
          "name": "_receiver",
          "type": "address"
        },
        {
          "indexed": false,
          "name": "_amount",
          "type": "uint256"
        }
      ],
      "name": "Retrieve",
      "type": "event"
    },
    {
      "constant": true,
      "inputs": [],
      "name": "isOwnable",
      "outputs": [
        {
          "name": "",
          "type": "bool"
        }
      ],
      "payable": false,
      "stateMutability": "view",
      "type": "function"
    },
    {
      "constant": true,
      "inputs": [],
      "name": "owner",
      "outputs": [
        {
          "name": "",
          "type": "address"
        }
      ],
      "payable": false,
      "stateMutability": "view",
      "type": "function"
    },
    {
      "constant": true,
      "inputs": [],
      "name": "token",
      "outputs": [
        {
          "name": "",
          "type": "address"
        }
      ],
      "payable": false,
      "stateMutability": "view",
      "type": "function"
    },
    {
      "constant": true,
      "inputs": [],
      "name": "beneficiary",
      "outputs": [
        {
          "name": "",
          "type": "address"
        }
      ],
      "payable": false,
      "stateMutability": "view",
      "type": "function"
    },
    {
      "constant": true,
      "inputs": [],
      "name": "releaseTime",
      "outputs": [
        {
          "name": "",
          "type": "uint256"
        }
      ],
      "payable": false,
      "stateMutability": "view",
      "type": "function"
    },
    {
      "constant": false,
      "inputs": [],
      "name": "release",
      "outputs": [],
      "payable": false,
      "stateMutability": "nonpayable",
      "type": "function"
    },
    {
      "constant": false,
      "inputs": [],
      "name": "retrieve",
      "outputs": [],
      "payable": false,
      "stateMutability": "nonpayable",
      "type": "function"
    }
  ],
  "bytecode": "0x608060405234801561001057600080fd5b5060405160a080610abc833981018060405260a081101561003057600080fd5b81019080805190602001909291908051906020019092919080519060200190929190805190602001909291908051906020019092919050505082600360006101000a81548173ffffffffffffffffffffffffffffffffffffffff021916908373ffffffffffffffffffffffffffffffffffffffff160217905550846000806101000a81548173ffffffffffffffffffffffffffffffffffffffff021916908373ffffffffffffffffffffffffffffffffffffffff16021790555083600160006101000a81548173ffffffffffffffffffffffffffffffffffffffff021916908373ffffffffffffffffffffffffffffffffffffffff1602179055508160028190555080600360146101000a81548160ff021916908315150217905550505050505061095c806101606000396000f3fe608060405234801561001057600080fd5b506004361061009a576000357c0100000000000000000000000000000000000000000000000000000000900480638da5cb5b116100785780638da5cb5b146100fd578063b91d400114610147578063d718fc2414610165578063fc0c546a146101875761009a565b80632e64cec11461009f57806338af3eed146100a957806386d1a69f146100f3575b600080fd5b6100a76101d1565b005b6100b1610446565b604051808273ffffffffffffffffffffffffffffffffffffffff1673ffffffffffffffffffffffffffffffffffffffff16815260200191505060405180910390f35b6100fb610470565b005b610105610687565b604051808273ffffffffffffffffffffffffffffffffffffffff1673ffffffffffffffffffffffffffffffffffffffff16815260200191505060405180910390f35b61014f6106b1565b6040518082815260200191505060405180910390f35b61016d6106bb565b604051808215151515815260200191505060405180910390f35b61018f6106d2565b604051808273ffffffffffffffffffffffffffffffffffffffff1673ffffffffffffffffffffffffffffffffffffffff16815260200191505060405180910390f35b6101d96106bb565b15156101e457600080fd5b600360009054906101000a900473ffffffffffffffffffffffffffffffffffffffff1673ffffffffffffffffffffffffffffffffffffffff163373ffffffffffffffffffffffffffffffffffffffff1614151561024057600080fd5b60008060009054906101000a900473ffffffffffffffffffffffffffffffffffffffff1673ffffffffffffffffffffffffffffffffffffffff166370a08231306040518263ffffffff167c0100000000000000000000000000000000000000000000000000000000028152600401808273ffffffffffffffffffffffffffffffffffffffff1673ffffffffffffffffffffffffffffffffffffffff16815260200191505060206040518083038186803b1580156102fc57600080fd5b505afa158015610310573d6000803e3d6000fd5b505050506040513d602081101561032657600080fd5b8101908080519060200190929190505050905060008111151561034857600080fd5b6103b6600360009054906101000a900473ffffffffffffffffffffffffffffffffffffffff16826000809054906101000a900473ffffffffffffffffffffffffffffffffffffffff1673ffffffffffffffffffffffffffffffffffffffff166106fb9092919063ffffffff16565b7f7d2175f2cd61ac503293c950aa8e75a2e2f44aa89f350cc22be3e4d9e5b3fbcf600360009054906101000a900473ffffffffffffffffffffffffffffffffffffffff1682604051808373ffffffffffffffffffffffffffffffffffffffff1673ffffffffffffffffffffffffffffffffffffffff1681526020018281526020019250505060405180910390a150565b6000600160009054906101000a900473ffffffffffffffffffffffffffffffffffffffff16905090565b600254421015151561048157600080fd5b60008060009054906101000a900473ffffffffffffffffffffffffffffffffffffffff1673ffffffffffffffffffffffffffffffffffffffff166370a08231306040518263ffffffff167c0100000000000000000000000000000000000000000000000000000000028152600401808273ffffffffffffffffffffffffffffffffffffffff1673ffffffffffffffffffffffffffffffffffffffff16815260200191505060206040518083038186803b15801561053d57600080fd5b505afa158015610551573d6000803e3d6000fd5b505050506040513d602081101561056757600080fd5b8101908080519060200190929190505050905060008111151561058957600080fd5b6105f7600160009054906101000a900473ffffffffffffffffffffffffffffffffffffffff16826000809054906101000a900473ffffffffffffffffffffffffffffffffffffffff1673ffffffffffffffffffffffffffffffffffffffff166106fb9092919063ffffffff16565b7fb371d42b3715509a27f3109f6ac1ef6b7d7e7f8e9232b738ed17338be6cf9580600160009054906101000a900473ffffffffffffffffffffffffffffffffffffffff1682604051808373ffffffffffffffffffffffffffffffffffffffff1673ffffffffffffffffffffffffffffffffffffffff1681526020018281526020019250505060405180910390a150565b6000600360009054906101000a900473ffffffffffffffffffffffffffffffffffffffff16905090565b6000600254905090565b6000600360149054906101000a900460ff16905090565b60008060009054906101000a900473ffffffffffffffffffffffffffffffffffffffff16905090565b6107e3838473ffffffffffffffffffffffffffffffffffffffff1663a9059cbb90507c0100000000000000000000000000000000000000000000000000000000028484604051602401808373ffffffffffffffffffffffffffffffffffffffff1673ffffffffffffffffffffffffffffffffffffffff16815260200182815260200192505050604051602081830303815290604052907bffffffffffffffffffffffffffffffffffffffffffffffffffffffff19166020820180517bffffffffffffffffffffffffffffffffffffffffffffffffffffffff83818316178352505050506107e8565b505050565b6108078273ffffffffffffffffffffffffffffffffffffffff1661091d565b151561081257600080fd5b600060608373ffffffffffffffffffffffffffffffffffffffff16836040518082805190602001908083835b602083101515610863578051825260208201915060208101905060208303925061083e565b6001836020036101000a0380198251168184511680821785525050505050509050019150506000604051808303816000865af19150503d80600081146108c5576040519150601f19603f3d011682016040523d82523d6000602084013e6108ca565b606091505b50915091508115156108db57600080fd5b600081511115610917578080602001905160208110156108fa57600080fd5b8101908080519060200190929190505050151561091657600080fd5b5b50505050565b600080823b90506000811191505091905056fea165627a7a723058202c20823c2037f602a500aa965ade6a91a4fd218d6d8887a501e587c430f8c81a0029",
  "source": "pragma solidity ^0.5.2;\n\nimport 'openzeppelin-solidity/contracts/token/ERC20/SafeERC20.sol';\n\ncontract TokenLock {\n  using SafeERC20 for IERC20;\n\n  // ERC20 basic token contract being held\n  IERC20 private _token;\n\n  // beneficiary of tokens after they are released\n  address private _beneficiary;\n\n  // timestamp when token release is enabled\n  uint256 private _releaseTime;\n\n  // generator of the tokenLock\n  address private _owner;\n  bool private _ownable;\n\n  event UnLock(address _receiver, uint256 _amount);\n  event Retrieve(address _receiver, uint256 _amount);\n\n  modifier onlyOwner() {\n    require(isOwnable());\n    require(msg.sender == _owner);\n    _;\n  }\n\n  constructor(IERC20 token, address beneficiary, address owner, uint256 releaseTime, bool ownable) public {\n    _owner = owner;\n    _token = token;\n    _beneficiary = beneficiary;\n    _releaseTime = releaseTime;\n    _ownable = ownable;\n  }\n\n  /**\n   * @return if this contract can be controlled by generator(owner)\n   */\n  function isOwnable() public view returns (bool) {\n    return _ownable;\n  }\n\n  function owner() public view returns (address) {\n    return _owner;\n  }\n\n  /**\n   * @return the token being held.\n   */\n  function token() public view returns (IERC20) {\n    return _token;\n  }\n\n  /**\n   * @return the beneficiary of the tokens.\n   */\n  function beneficiary() public view returns (address) {\n    return _beneficiary;\n  }\n\n  /**\n   * @return the time when the tokens are released.\n   */\n  function releaseTime() public view returns (uint256) {\n    return _releaseTime;\n  }\n\n  /**\n   * @notice Transfers tokens held by timelock to beneficiary.\n   */\n  function release() public {\n    require(block.timestamp >= _releaseTime);\n\n    uint256 amount = _token.balanceOf(address(this));\n    require(amount > 0);\n\n    _token.safeTransfer(_beneficiary, amount);\n    emit UnLock(_beneficiary, amount);\n  }\n\n  /**\n   * @notice Retrieve tokens held by timelock to generator(owner).\n   */\n  function retrieve() onlyOwner public {\n    uint256 amount = _token.balanceOf(address(this));\n    require(amount > 0);\n\n    _token.safeTransfer(_owner, amount);\n    emit Retrieve(_owner, amount);\n  }\n}\n",
  "sourcePath": "/shared_vagrant/smartcontract/contracts/TokenLock.sol",
  "compiler": {
    "name": "solc",
    "version": "0.5.2+commit.1df8f40c.Emscripten.clang"
  },
  "schemaVersion": "3.0.8",
  "updatedAt": "2019-05-04T13:44:27.883Z",
  "devdoc": {
    "methods": {
      "beneficiary()": {
        "return": "the beneficiary of the tokens."
      },
      "isOwnable()": {
        "return": "if this contract can be controlled by generator(owner)"
      },
      "releaseTime()": {
        "return": "the time when the tokens are released."
      },
      "token()": {
        "return": "the token being held."
      }
    }
  },
  "userdoc": {
    "methods": {
      "release()": {
        "notice": "Transfers tokens held by timelock to beneficiary."
      },
      "retrieve()": {
        "notice": "Retrieve tokens held by timelock to generator(owner)."
      }
    }
  }
}